{
  "_format": "hh-sol-artifact-1",
  "contractName": "CrowdFunding",
  "sourceName": "contracts/CrowdFunding.sol",
  "abi": [
    {
      "inputs": [],
      "name": "campaignCount",
      "outputs": [
        {
          "internalType": "uint256",
          "name": "",
          "type": "uint256"
        }
      ],
      "stateMutability": "view",
      "type": "function"
    },
    {
      "inputs": [
        {
          "internalType": "uint256",
          "name": "",
          "type": "uint256"
        }
      ],
      "name": "campaigns",
      "outputs": [
        {
          "internalType": "uint256",
          "name": "id",
          "type": "uint256"
        },
        {
          "internalType": "address",
          "name": "owner",
          "type": "address"
        },
        {
          "internalType": "string",
          "name": "title",
          "type": "string"
        },
        {
          "internalType": "string",
          "name": "description",
          "type": "string"
        },
        {
          "internalType": "uint256",
          "name": "target",
          "type": "uint256"
        },
        {
          "internalType": "uint256",
          "name": "amountcollected",
          "type": "uint256"
        },
        {
          "internalType": "uint256",
          "name": "deadline",
          "type": "uint256"
        },
        {
          "internalType": "string",
          "name": "image",
          "type": "string"
        }
      ],
      "stateMutability": "view",
      "type": "function"
    },
    {
      "inputs": [
        {
          "internalType": "address",
          "name": "_owner",
          "type": "address"
        },
        {
          "internalType": "string",
          "name": "_title",
          "type": "string"
        },
        {
          "internalType": "string",
          "name": "_description",
          "type": "string"
        },
        {
          "internalType": "uint256",
          "name": "_target",
          "type": "uint256"
        },
        {
          "internalType": "uint256",
          "name": "_deadline",
          "type": "uint256"
        },
        {
          "internalType": "string",
          "name": "_image",
          "type": "string"
        }
      ],
      "name": "createCampaign",
      "outputs": [
        {
          "internalType": "uint256",
          "name": "",
          "type": "uint256"
        }
      ],
      "stateMutability": "nonpayable",
      "type": "function"
    },
    {
      "inputs": [
        {
          "internalType": "uint256",
          "name": "_id",
          "type": "uint256"
        }
      ],
      "name": "donateToCampaign",
      "outputs": [],
      "stateMutability": "payable",
      "type": "function"
    },
    {
      "inputs": [
        {
          "internalType": "uint256",
          "name": "_id",
          "type": "uint256"
        }
      ],
      "name": "getCampaign",
      "outputs": [
        {
          "components": [
            {
              "internalType": "uint256",
              "name": "id",
              "type": "uint256"
            },
            {
              "internalType": "address",
              "name": "owner",
              "type": "address"
            },
            {
              "internalType": "string",
              "name": "title",
              "type": "string"
            },
            {
              "internalType": "string",
              "name": "description",
              "type": "string"
            },
            {
              "internalType": "uint256",
              "name": "target",
              "type": "uint256"
            },
            {
              "internalType": "uint256",
              "name": "amountcollected",
              "type": "uint256"
            },
            {
              "internalType": "uint256",
              "name": "deadline",
              "type": "uint256"
            },
            {
              "internalType": "string",
              "name": "image",
              "type": "string"
            },
            {
              "internalType": "address[]",
              "name": "donators",
              "type": "address[]"
            },
            {
              "internalType": "uint256[]",
              "name": "donations",
              "type": "uint256[]"
            }
          ],
          "internalType": "struct CrowdFunding.Campaign",
          "name": "",
          "type": "tuple"
        }
      ],
      "stateMutability": "view",
      "type": "function"
    },
    {
      "inputs": [],
      "name": "getCampaigns",
      "outputs": [
        {
          "internalType": "uint256[]",
          "name": "",
          "type": "uint256[]"
        },
        {
          "internalType": "address[]",
          "name": "",
          "type": "address[]"
        },
        {
          "internalType": "string[]",
          "name": "",
          "type": "string[]"
        },
        {
          "internalType": "string[]",
          "name": "",
          "type": "string[]"
        },
        {
          "internalType": "uint256[]",
          "name": "",
          "type": "uint256[]"
        },
        {
          "internalType": "uint256[]",
          "name": "",
          "type": "uint256[]"
        },
        {
          "internalType": "uint256[]",
          "name": "",
          "type": "uint256[]"
        },
        {
          "internalType": "string[]",
          "name": "",
          "type": "string[]"
        }
      ],
      "stateMutability": "view",
      "type": "function"
    },
    {
      "inputs": [
        {
          "internalType": "uint256",
          "name": "_id",
          "type": "uint256"
        }
      ],
      "name": "getDonators",
      "outputs": [
        {
          "internalType": "address[]",
          "name": "",
          "type": "address[]"
        }
      ],
      "stateMutability": "view",
      "type": "function"
    }
  ],
  "bytecode": "0x60806040526000600155348015601457600080fd5b50611efa806100246000396000f3fe6080604052600436106100705760003560e01c80635598f8cc1161004e5780635598f8cc146101125780637274e30d1461014f5780639943e3a11461017a578063a6b03633146101b757610070565b80630fa91fa914610075578063141961bc146100b257806342a4fda8146100f6575b600080fd5b34801561008157600080fd5b5061009c60048036038101906100979190611107565b6101e9565b6040516100a99190611224565b60405180910390f35b3480156100be57600080fd5b506100d960048036038101906100d49190611107565b61028c565b6040516100ed9897969594939291906112f4565b60405180910390f35b610110600480360381019061010b9190611107565b61048c565b005b34801561011e57600080fd5b5061013960048036038101906101349190611107565b6105ef565b60405161014691906115f4565b60405180910390f35b34801561015b57600080fd5b50610164610936565b6040516101719190611616565b60405180910390f35b34801561018657600080fd5b506101a1600480360381019061019c9190611792565b61093c565b6040516101ae9190611616565b60405180910390f35b3480156101c357600080fd5b506101cc610a62565b6040516101e09897969594939291906119a4565b60405180910390f35b606060008083815260200190815260200160002060080180548060200260200160405190810160405280929190818152602001828054801561028057602002820191906000526020600020905b8160009054906101000a900473ffffffffffffffffffffffffffffffffffffffff1673ffffffffffffffffffffffffffffffffffffffff1681526020019060010190808311610236575b50505050509050919050565b60006020528060005260406000206000915090508060000154908060010160009054906101000a900473ffffffffffffffffffffffffffffffffffffffff16908060020180546102db90611a89565b80601f016020809104026020016040519081016040528092919081815260200182805461030790611a89565b80156103545780601f1061032957610100808354040283529160200191610354565b820191906000526020600020905b81548152906001019060200180831161033757829003601f168201915b50505050509080600301805461036990611a89565b80601f016020809104026020016040519081016040528092919081815260200182805461039590611a89565b80156103e25780601f106103b7576101008083540402835291602001916103e2565b820191906000526020600020905b8154815290600101906020018083116103c557829003601f168201915b50505050509080600401549080600501549080600601549080600701805461040990611a89565b80601f016020809104026020016040519081016040528092919081815260200182805461043590611a89565b80156104825780601f1061045757610100808354040283529160200191610482565b820191906000526020600020905b81548152906001019060200180831161046557829003601f168201915b5050505050905088565b60003490506000806000848152602001908152602001600020905080600801339080600181540180825580915050600190039060005260206000200160009091909190916101000a81548173ffffffffffffffffffffffffffffffffffffffff021916908373ffffffffffffffffffffffffffffffffffffffff1602179055508060090182908060018154018082558091505060019003906000526020600020016000909190919091505560008160010160009054906101000a900473ffffffffffffffffffffffffffffffffffffffff1673ffffffffffffffffffffffffffffffffffffffff168360405161058190611aeb565b60006040518083038185875af1925050503d80600081146105be576040519150601f19603f3d011682016040523d82523d6000602084013e6105c3565b606091505b5050905080156105e957828260050160008282546105e19190611b2f565b925050819055505b50505050565b6105f7611054565b60008083815260200190815260200160002060405180610140016040529081600082015481526020016001820160009054906101000a900473ffffffffffffffffffffffffffffffffffffffff1673ffffffffffffffffffffffffffffffffffffffff1673ffffffffffffffffffffffffffffffffffffffff16815260200160028201805461068590611a89565b80601f01602080910402602001604051908101604052809291908181526020018280546106b190611a89565b80156106fe5780601f106106d3576101008083540402835291602001916106fe565b820191906000526020600020905b8154815290600101906020018083116106e157829003601f168201915b5050505050815260200160038201805461071790611a89565b80601f016020809104026020016040519081016040528092919081815260200182805461074390611a89565b80156107905780601f1061076557610100808354040283529160200191610790565b820191906000526020600020905b81548152906001019060200180831161077357829003601f168201915b505050505081526020016004820154815260200160058201548152602001600682015481526020016007820180546107c790611a89565b80601f01602080910402602001604051908101604052809291908181526020018280546107f390611a89565b80156108405780601f1061081557610100808354040283529160200191610840565b820191906000526020600020905b81548152906001019060200180831161082357829003601f168201915b50505050508152602001600882018054806020026020016040519081016040528092919081815260200182805480156108ce57602002820191906000526020600020905b8160009054906101000a900473ffffffffffffffffffffffffffffffffffffffff1673ffffffffffffffffffffffffffffffffffffffff1681526020019060010190808311610884575b505050505081526020016009820180548060200260200160405190810160405280929190818152602001828054801561092657602002820191906000526020600020905b815481526020019060010190808311610912575b5050505050815250509050919050565b60015481565b6000428311610980576040517f08c379a000000000000000000000000000000000000000000000000000000000815260040161097790611baf565b60405180910390fd5b6000806000600154815260200190815260200160002090506001548160000181905550878160010160006101000a81548173ffffffffffffffffffffffffffffffffffffffff021916908373ffffffffffffffffffffffffffffffffffffffff160217905550868160020190816109f79190611d7b565b5085816003019081610a099190611d7b565b508481600401819055506000816005018190555083816006018190555082816007019081610a379190611d7b565b5060016000815480929190610a4b90611e4d565b919050555080600001549150509695505050505050565b606080606080606080606080600060015467ffffffffffffffff811115610a8c57610a8b611667565b5b604051908082528060200260200182016040528015610aba5781602001602082028036833780820191505090505b509050600060015467ffffffffffffffff811115610adb57610ada611667565b5b604051908082528060200260200182016040528015610b095781602001602082028036833780820191505090505b509050600060015467ffffffffffffffff811115610b2a57610b29611667565b5b604051908082528060200260200182016040528015610b5d57816020015b6060815260200190600190039081610b485790505b509050600060015467ffffffffffffffff811115610b7e57610b7d611667565b5b604051908082528060200260200182016040528015610bb157816020015b6060815260200190600190039081610b9c5790505b509050600060015467ffffffffffffffff811115610bd257610bd1611667565b5b604051908082528060200260200182016040528015610c005781602001602082028036833780820191505090505b509050600060015467ffffffffffffffff811115610c2157610c20611667565b5b604051908082528060200260200182016040528015610c4f5781602001602082028036833780820191505090505b509050600060015467ffffffffffffffff811115610c7057610c6f611667565b5b604051908082528060200260200182016040528015610c9e5781602001602082028036833780820191505090505b509050600060015467ffffffffffffffff811115610cbf57610cbe611667565b5b604051908082528060200260200182016040528015610cf257816020015b6060815260200190600190039081610cdd5790505b50905060005b600154811015611029576000806000838152602001908152602001600020905080600001548a8381518110610d3057610d2f611e95565b5b6020026020010181815250508060010160009054906101000a900473ffffffffffffffffffffffffffffffffffffffff16898381518110610d7457610d73611e95565b5b602002602001019073ffffffffffffffffffffffffffffffffffffffff16908173ffffffffffffffffffffffffffffffffffffffff1681525050806002018054610dbd90611a89565b80601f0160208091040260200160405190810160405280929190818152602001828054610de990611a89565b8015610e365780601f10610e0b57610100808354040283529160200191610e36565b820191906000526020600020905b815481529060010190602001808311610e1957829003601f168201915b5050505050888381518110610e4e57610e4d611e95565b5b6020026020010181905250806003018054610e6890611a89565b80601f0160208091040260200160405190810160405280929190818152602001828054610e9490611a89565b8015610ee15780601f10610eb657610100808354040283529160200191610ee1565b820191906000526020600020905b815481529060010190602001808311610ec457829003601f168201915b5050505050878381518110610ef957610ef8611e95565b5b60200260200101819052508060040154868381518110610f1c57610f1b611e95565b5b6020026020010181815250508060050154858381518110610f4057610f3f611e95565b5b6020026020010181815250508060060154848381518110610f6457610f63611e95565b5b602002602001018181525050806007018054610f7f90611a89565b80601f0160208091040260200160405190810160405280929190818152602001828054610fab90611a89565b8015610ff85780601f10610fcd57610100808354040283529160200191610ff8565b820191906000526020600020905b815481529060010190602001808311610fdb57829003601f168201915b50505050508383815181106110105761100f611e95565b5b6020026020010181905250508080600101915050610cf8565b5087878787878787879f509f509f509f509f509f509f509f5050505050505050509091929394959697565b60405180610140016040528060008152602001600073ffffffffffffffffffffffffffffffffffffffff16815260200160608152602001606081526020016000815260200160008152602001600081526020016060815260200160608152602001606081525090565b6000604051905090565b600080fd5b600080fd5b6000819050919050565b6110e4816110d1565b81146110ef57600080fd5b50565b600081359050611101816110db565b92915050565b60006020828403121561111d5761111c6110c7565b5b600061112b848285016110f2565b91505092915050565b600081519050919050565b600082825260208201905092915050565b6000819050602082019050919050565b600073ffffffffffffffffffffffffffffffffffffffff82169050919050565b600061118b82611160565b9050919050565b61119b81611180565b82525050565b60006111ad8383611192565b60208301905092915050565b6000602082019050919050565b60006111d182611134565b6111db818561113f565b93506111e683611150565b8060005b838110156112175781516111fe88826111a1565b9750611209836111b9565b9250506001810190506111ea565b5085935050505092915050565b6000602082019050818103600083015261123e81846111c6565b905092915050565b61124f816110d1565b82525050565b61125e81611180565b82525050565b600081519050919050565b600082825260208201905092915050565b60005b8381101561129e578082015181840152602081019050611283565b60008484015250505050565b6000601f19601f8301169050919050565b60006112c682611264565b6112d0818561126f565b93506112e0818560208601611280565b6112e9816112aa565b840191505092915050565b60006101008201905061130a600083018b611246565b611317602083018a611255565b818103604083015261132981896112bb565b9050818103606083015261133d81886112bb565b905061134c6080830187611246565b61135960a0830186611246565b61136660c0830185611246565b81810360e083015261137881846112bb565b90509998505050505050505050565b611390816110d1565b82525050565b600082825260208201905092915050565b60006113b282611264565b6113bc8185611396565b93506113cc818560208601611280565b6113d5816112aa565b840191505092915050565b600082825260208201905092915050565b60006113fc82611134565b61140681856113e0565b935061141183611150565b8060005b8381101561144257815161142988826111a1565b9750611434836111b9565b925050600181019050611415565b5085935050505092915050565b600081519050919050565b600082825260208201905092915050565b6000819050602082019050919050565b60006114878383611387565b60208301905092915050565b6000602082019050919050565b60006114ab8261144f565b6114b5818561145a565b93506114c08361146b565b8060005b838110156114f15781516114d8888261147b565b97506114e383611493565b9250506001810190506114c4565b5085935050505092915050565b6000610140830160008301516115176000860182611387565b50602083015161152a6020860182611192565b506040830151848203604086015261154282826113a7565b9150506060830151848203606086015261155c82826113a7565b91505060808301516115716080860182611387565b5060a083015161158460a0860182611387565b5060c083015161159760c0860182611387565b5060e083015184820360e08601526115af82826113a7565b9150506101008301518482036101008601526115cb82826113f1565b9150506101208301518482036101208601526115e782826114a0565b9150508091505092915050565b6000602082019050818103600083015261160e81846114fe565b905092915050565b600060208201905061162b6000830184611246565b92915050565b61163a81611180565b811461164557600080fd5b50565b60008135905061165781611631565b92915050565b600080fd5b600080fd5b7f4e487b7100000000000000000000000000000000000000000000000000000000600052604160045260246000fd5b61169f826112aa565b810181811067ffffffffffffffff821117156116be576116bd611667565b5b80604052505050565b60006116d16110bd565b90506116dd8282611696565b919050565b600067ffffffffffffffff8211156116fd576116fc611667565b5b611706826112aa565b9050602081019050919050565b82818337600083830152505050565b6000611735611730846116e2565b6116c7565b90508281526020810184848401111561175157611750611662565b5b61175c848285611713565b509392505050565b600082601f8301126117795761177861165d565b5b8135611789848260208601611722565b91505092915050565b60008060008060008060c087890312156117af576117ae6110c7565b5b60006117bd89828a01611648565b965050602087013567ffffffffffffffff8111156117de576117dd6110cc565b5b6117ea89828a01611764565b955050604087013567ffffffffffffffff81111561180b5761180a6110cc565b5b61181789828a01611764565b945050606061182889828a016110f2565b935050608061183989828a016110f2565b92505060a087013567ffffffffffffffff81111561185a576118596110cc565b5b61186689828a01611764565b9150509295509295509295565b600082825260208201905092915050565b600061188f8261144f565b6118998185611873565b93506118a48361146b565b8060005b838110156118d55781516118bc888261147b565b97506118c783611493565b9250506001810190506118a8565b5085935050505092915050565b600081519050919050565b600082825260208201905092915050565b6000819050602082019050919050565b600061191a83836113a7565b905092915050565b6000602082019050919050565b600061193a826118e2565b61194481856118ed565b935083602082028501611956856118fe565b8060005b858110156119925784840389528151611973858261190e565b945061197e83611922565b925060208a0199505060018101905061195a565b50829750879550505050505092915050565b60006101008201905081810360008301526119bf818b611884565b905081810360208301526119d3818a6111c6565b905081810360408301526119e7818961192f565b905081810360608301526119fb818861192f565b90508181036080830152611a0f8187611884565b905081810360a0830152611a238186611884565b905081810360c0830152611a378185611884565b905081810360e0830152611a4b818461192f565b90509998505050505050505050565b7f4e487b7100000000000000000000000000000000000000000000000000000000600052602260045260246000fd5b60006002820490506001821680611aa157607f821691505b602082108103611ab457611ab3611a5a565b5b50919050565b600081905092915050565b50565b6000611ad5600083611aba565b9150611ae082611ac5565b600082019050919050565b6000611af682611ac8565b9150819050919050565b7f4e487b7100000000000000000000000000000000000000000000000000000000600052601160045260246000fd5b6000611b3a826110d1565b9150611b45836110d1565b9250828201905080821115611b5d57611b5c611b00565b5b92915050565b7f54686520646561646c696e652068617320706173736564000000000000000000600082015250565b6000611b9960178361126f565b9150611ba482611b63565b602082019050919050565b60006020820190508181036000830152611bc881611b8c565b9050919050565b60008190508160005260206000209050919050565b60006020601f8301049050919050565b600082821b905092915050565b600060088302611c317fffffffffffffffffffffffffffffffffffffffffffffffffffffffffffffffff82611bf4565b611c3b8683611bf4565b95508019841693508086168417925050509392505050565b6000819050919050565b6000611c78611c73611c6e846110d1565b611c53565b6110d1565b9050919050565b6000819050919050565b611c9283611c5d565b611ca6611c9e82611c7f565b848454611c01565b825550505050565b600090565b611cbb611cae565b611cc6818484611c89565b505050565b5b81811015611cea57611cdf600082611cb3565b600181019050611ccc565b5050565b601f821115611d2f57611d0081611bcf565b611d0984611be4565b81016020851015611d18578190505b611d2c611d2485611be4565b830182611ccb565b50505b505050565b600082821c905092915050565b6000611d5260001984600802611d34565b1980831691505092915050565b6000611d6b8383611d41565b9150826002028217905092915050565b611d8482611264565b67ffffffffffffffff811115611d9d57611d9c611667565b5b611da78254611a89565b611db2828285611cee565b600060209050601f831160018114611de55760008415611dd3578287015190505b611ddd8582611d5f565b865550611e45565b601f198416611df386611bcf565b60005b82811015611e1b57848901518255600182019150602085019450602081019050611df6565b86831015611e385784890151611e34601f891682611d41565b8355505b6001600288020188555050505b505050505050565b6000611e58826110d1565b91507fffffffffffffffffffffffffffffffffffffffffffffffffffffffffffffffff8203611e8a57611e89611b00565b5b600182019050919050565b7f4e487b7100000000000000000000000000000000000000000000000000000000600052603260045260246000fdfea2646970667358221220a5c487f95002d951da0bcc95d7e225c6ecbaf29f193aa9c45bb76c204c57dc3b64736f6c634300081c0033",
  "linkReferences": {},
  "deployedLinkReferences": {}
}