{
  "_format": "hh-sol-artifact-1",
  "contractName": "CrowdFunding",
  "sourceName": "contracts/CrowdFunding.sol",
  "abi": [
    {
      "anonymous": false,
      "inputs": [
        {
          "indexed": true,
          "internalType": "uint256",
          "name": "campaignId",
          "type": "uint256"
        },
        {
          "indexed": true,
          "internalType": "address",
          "name": "donor",
          "type": "address"
        },
        {
          "indexed": false,
          "internalType": "uint256",
          "name": "amount",
          "type": "uint256"
        }
      ],
      "name": "DonationMade",
      "type": "event"
    },
    {
      "inputs": [],
      "name": "campaignCount",
      "outputs": [
        {
          "internalType": "uint256",
          "name": "",
          "type": "uint256"
        }
      ],
      "stateMutability": "view",
      "type": "function"
    },
    {
      "inputs": [
        {
          "internalType": "uint256",
          "name": "",
          "type": "uint256"
        }
      ],
      "name": "campaigns",
      "outputs": [
        {
          "internalType": "uint256",
          "name": "id",
          "type": "uint256"
        },
        {
          "internalType": "address",
          "name": "owner",
          "type": "address"
        },
        {
          "internalType": "string",
          "name": "title",
          "type": "string"
        },
        {
          "internalType": "string",
          "name": "description",
          "type": "string"
        },
        {
          "internalType": "uint256",
          "name": "target",
          "type": "uint256"
        },
        {
          "internalType": "uint256",
          "name": "amountcollected",
          "type": "uint256"
        },
        {
          "internalType": "uint256",
          "name": "deadline",
          "type": "uint256"
        },
        {
          "internalType": "string",
          "name": "image",
          "type": "string"
        }
      ],
      "stateMutability": "view",
      "type": "function"
    },
    {
      "inputs": [
        {
          "internalType": "address",
          "name": "_owner",
          "type": "address"
        },
        {
          "internalType": "string",
          "name": "_title",
          "type": "string"
        },
        {
          "internalType": "string",
          "name": "_description",
          "type": "string"
        },
        {
          "internalType": "uint256",
          "name": "_target",
          "type": "uint256"
        },
        {
          "internalType": "uint256",
          "name": "_deadline",
          "type": "uint256"
        },
        {
          "internalType": "string",
          "name": "_image",
          "type": "string"
        }
      ],
      "name": "createCampaign",
      "outputs": [
        {
          "internalType": "uint256",
          "name": "",
          "type": "uint256"
        }
      ],
      "stateMutability": "nonpayable",
      "type": "function"
    },
    {
      "inputs": [
        {
          "internalType": "uint256",
          "name": "_id",
          "type": "uint256"
        }
      ],
      "name": "donateToCampaign",
      "outputs": [],
      "stateMutability": "payable",
      "type": "function"
    },
    {
      "inputs": [
        {
          "internalType": "uint256",
          "name": "_id",
          "type": "uint256"
        }
      ],
      "name": "getCampaign",
      "outputs": [
        {
          "components": [
            {
              "internalType": "uint256",
              "name": "id",
              "type": "uint256"
            },
            {
              "internalType": "address",
              "name": "owner",
              "type": "address"
            },
            {
              "internalType": "string",
              "name": "title",
              "type": "string"
            },
            {
              "internalType": "string",
              "name": "description",
              "type": "string"
            },
            {
              "internalType": "uint256",
              "name": "target",
              "type": "uint256"
            },
            {
              "internalType": "uint256",
              "name": "amountcollected",
              "type": "uint256"
            },
            {
              "internalType": "uint256",
              "name": "deadline",
              "type": "uint256"
            },
            {
              "internalType": "string",
              "name": "image",
              "type": "string"
            },
            {
              "internalType": "address[]",
              "name": "donators",
              "type": "address[]"
            },
            {
              "internalType": "uint256[]",
              "name": "donations",
              "type": "uint256[]"
            }
          ],
          "internalType": "struct CrowdFunding.Campaign",
          "name": "",
          "type": "tuple"
        }
      ],
      "stateMutability": "view",
      "type": "function"
    },
    {
      "inputs": [],
      "name": "getCampaigns",
      "outputs": [
        {
          "internalType": "uint256[]",
          "name": "",
          "type": "uint256[]"
        },
        {
          "internalType": "address[]",
          "name": "",
          "type": "address[]"
        },
        {
          "internalType": "string[]",
          "name": "",
          "type": "string[]"
        },
        {
          "internalType": "string[]",
          "name": "",
          "type": "string[]"
        },
        {
          "internalType": "uint256[]",
          "name": "",
          "type": "uint256[]"
        },
        {
          "internalType": "uint256[]",
          "name": "",
          "type": "uint256[]"
        },
        {
          "internalType": "uint256[]",
          "name": "",
          "type": "uint256[]"
        },
        {
          "internalType": "string[]",
          "name": "",
          "type": "string[]"
        }
      ],
      "stateMutability": "view",
      "type": "function"
    },
    {
      "inputs": [
        {
          "internalType": "uint256",
          "name": "_id",
          "type": "uint256"
        }
      ],
      "name": "getDonatorCount",
      "outputs": [
        {
          "internalType": "uint256",
          "name": "",
          "type": "uint256"
        }
      ],
      "stateMutability": "view",
      "type": "function"
    },
    {
      "inputs": [
        {
          "internalType": "uint256",
          "name": "_id",
          "type": "uint256"
        }
      ],
      "name": "getDonators",
      "outputs": [
        {
          "internalType": "address[]",
          "name": "",
          "type": "address[]"
        },
        {
          "internalType": "uint256[]",
          "name": "",
          "type": "uint256[]"
        }
      ],
      "stateMutability": "view",
      "type": "function"
    }
  ],
  "bytecode": "0x60806040526000600155348015601457600080fd5b5061202b806100246000396000f3fe60806040526004361061007b5760003560e01c80637274e30d1161004e5780637274e30d1461015b5780639943e3a114610186578063a6b03633146101c3578063da7d76f8146101f55761007b565b80630fa91fa914610080578063141961bc146100be57806342a4fda8146101025780635598f8cc1461011e575b600080fd5b34801561008c57600080fd5b506100a760048036038101906100a29190611223565b610232565b6040516100b59291906113fe565b60405180910390f35b3480156100ca57600080fd5b506100e560048036038101906100e09190611223565b610337565b6040516100f99897969594939291906114e3565b60405180910390f35b61011c60048036038101906101179190611223565b610537565b005b34801561012a57600080fd5b5061014560048036038101906101409190611223565b6106e9565b6040516101529190611794565b60405180910390f35b34801561016757600080fd5b50610170610a30565b60405161017d91906117b6565b60405180910390f35b34801561019257600080fd5b506101ad60048036038101906101a89190611932565b610a36565b6040516101ba91906117b6565b60405180910390f35b3480156101cf57600080fd5b506101d8610b5c565b6040516101ec989796959493929190611ad5565b60405180910390f35b34801561020157600080fd5b5061021c60048036038101906102179190611223565b61114e565b60405161022991906117b6565b60405180910390f35b606080600080600085815260200190815260200160002090508060080181600901818054806020026020016040519081016040528092919081815260200182805480156102d457602002820191906000526020600020905b8160009054906101000a900473ffffffffffffffffffffffffffffffffffffffff1673ffffffffffffffffffffffffffffffffffffffff168152602001906001019080831161028a575b505050505091508080548060200260200160405190810160405280929190818152602001828054801561032657602002820191906000526020600020905b815481526020019060010190808311610312575b505050505090509250925050915091565b60006020528060005260406000206000915090508060000154908060010160009054906101000a900473ffffffffffffffffffffffffffffffffffffffff169080600201805461038690611bba565b80601f01602080910402602001604051908101604052809291908181526020018280546103b290611bba565b80156103ff5780601f106103d4576101008083540402835291602001916103ff565b820191906000526020600020905b8154815290600101906020018083116103e257829003601f168201915b50505050509080600301805461041490611bba565b80601f016020809104026020016040519081016040528092919081815260200182805461044090611bba565b801561048d5780601f106104625761010080835404028352916020019161048d565b820191906000526020600020905b81548152906001019060200180831161047057829003601f168201915b5050505050908060040154908060050154908060060154908060070180546104b490611bba565b80601f01602080910402602001604051908101604052809291908181526020018280546104e090611bba565b801561052d5780601f106105025761010080835404028352916020019161052d565b820191906000526020600020905b81548152906001019060200180831161051057829003601f168201915b5050505050905088565b60003490506000806000848152602001908152602001600020905080600801339080600181540180825580915050600190039060005260206000200160009091909190916101000a81548173ffffffffffffffffffffffffffffffffffffffff021916908373ffffffffffffffffffffffffffffffffffffffff1602179055508060090182908060018154018082558091505060019003906000526020600020016000909190919091505560008160010160009054906101000a900473ffffffffffffffffffffffffffffffffffffffff1673ffffffffffffffffffffffffffffffffffffffff168360405161062c90611c1c565b60006040518083038185875af1925050503d8060008114610669576040519150601f19603f3d011682016040523d82523d6000602084013e61066e565b606091505b5050905080156106e3578282600501600082825461068c9190611c60565b925050819055503373ffffffffffffffffffffffffffffffffffffffff16847fe555da28bdb778f65d22794d88927ebaeca03f7de9d1b7d39245bc8fb5ca078a856040516106da91906117b6565b60405180910390a35b50505050565b6106f1611170565b60008083815260200190815260200160002060405180610140016040529081600082015481526020016001820160009054906101000a900473ffffffffffffffffffffffffffffffffffffffff1673ffffffffffffffffffffffffffffffffffffffff1673ffffffffffffffffffffffffffffffffffffffff16815260200160028201805461077f90611bba565b80601f01602080910402602001604051908101604052809291908181526020018280546107ab90611bba565b80156107f85780601f106107cd576101008083540402835291602001916107f8565b820191906000526020600020905b8154815290600101906020018083116107db57829003601f168201915b5050505050815260200160038201805461081190611bba565b80601f016020809104026020016040519081016040528092919081815260200182805461083d90611bba565b801561088a5780601f1061085f5761010080835404028352916020019161088a565b820191906000526020600020905b81548152906001019060200180831161086d57829003601f168201915b505050505081526020016004820154815260200160058201548152602001600682015481526020016007820180546108c190611bba565b80601f01602080910402602001604051908101604052809291908181526020018280546108ed90611bba565b801561093a5780601f1061090f5761010080835404028352916020019161093a565b820191906000526020600020905b81548152906001019060200180831161091d57829003601f168201915b50505050508152602001600882018054806020026020016040519081016040528092919081815260200182805480156109c857602002820191906000526020600020905b8160009054906101000a900473ffffffffffffffffffffffffffffffffffffffff1673ffffffffffffffffffffffffffffffffffffffff168152602001906001019080831161097e575b5050505050815260200160098201805480602002602001604051908101604052809291908181526020018280548015610a2057602002820191906000526020600020905b815481526020019060010190808311610a0c575b5050505050815250509050919050565b60015481565b6000428311610a7a576040517f08c379a0000000000000000000000000000000000000000000000000000000008152600401610a7190611ce0565b60405180910390fd5b6000806000600154815260200190815260200160002090506001548160000181905550878160010160006101000a81548173ffffffffffffffffffffffffffffffffffffffff021916908373ffffffffffffffffffffffffffffffffffffffff16021790555086816002019081610af19190611eac565b5085816003019081610b039190611eac565b508481600401819055506000816005018190555083816006018190555082816007019081610b319190611eac565b5060016000815480929190610b4590611f7e565b919050555080600001549150509695505050505050565b606080606080606080606080600060015467ffffffffffffffff811115610b8657610b85611807565b5b604051908082528060200260200182016040528015610bb45781602001602082028036833780820191505090505b509050600060015467ffffffffffffffff811115610bd557610bd4611807565b5b604051908082528060200260200182016040528015610c035781602001602082028036833780820191505090505b509050600060015467ffffffffffffffff811115610c2457610c23611807565b5b604051908082528060200260200182016040528015610c5757816020015b6060815260200190600190039081610c425790505b509050600060015467ffffffffffffffff811115610c7857610c77611807565b5b604051908082528060200260200182016040528015610cab57816020015b6060815260200190600190039081610c965790505b509050600060015467ffffffffffffffff811115610ccc57610ccb611807565b5b604051908082528060200260200182016040528015610cfa5781602001602082028036833780820191505090505b509050600060015467ffffffffffffffff811115610d1b57610d1a611807565b5b604051908082528060200260200182016040528015610d495781602001602082028036833780820191505090505b509050600060015467ffffffffffffffff811115610d6a57610d69611807565b5b604051908082528060200260200182016040528015610d985781602001602082028036833780820191505090505b509050600060015467ffffffffffffffff811115610db957610db8611807565b5b604051908082528060200260200182016040528015610dec57816020015b6060815260200190600190039081610dd75790505b50905060005b600154811015611123576000806000838152602001908152602001600020905080600001548a8381518110610e2a57610e29611fc6565b5b6020026020010181815250508060010160009054906101000a900473ffffffffffffffffffffffffffffffffffffffff16898381518110610e6e57610e6d611fc6565b5b602002602001019073ffffffffffffffffffffffffffffffffffffffff16908173ffffffffffffffffffffffffffffffffffffffff1681525050806002018054610eb790611bba565b80601f0160208091040260200160405190810160405280929190818152602001828054610ee390611bba565b8015610f305780601f10610f0557610100808354040283529160200191610f30565b820191906000526020600020905b815481529060010190602001808311610f1357829003601f168201915b5050505050888381518110610f4857610f47611fc6565b5b6020026020010181905250806003018054610f6290611bba565b80601f0160208091040260200160405190810160405280929190818152602001828054610f8e90611bba565b8015610fdb5780601f10610fb057610100808354040283529160200191610fdb565b820191906000526020600020905b815481529060010190602001808311610fbe57829003601f168201915b5050505050878381518110610ff357610ff2611fc6565b5b6020026020010181905250806004015486838151811061101657611015611fc6565b5b602002602001018181525050806005015485838151811061103a57611039611fc6565b5b602002602001018181525050806006015484838151811061105e5761105d611fc6565b5b60200260200101818152505080600701805461107990611bba565b80601f01602080910402602001604051908101604052809291908181526020018280546110a590611bba565b80156110f25780601f106110c7576101008083540402835291602001916110f2565b820191906000526020600020905b8154815290600101906020018083116110d557829003601f168201915b505050505083838151811061110a57611109611fc6565b5b6020026020010181905250508080600101915050610df2565b5087878787878787879f509f509f509f509f509f509f509f5050505050505050509091929394959697565b6000806000838152602001908152602001600020600801805490509050919050565b60405180610140016040528060008152602001600073ffffffffffffffffffffffffffffffffffffffff16815260200160608152602001606081526020016000815260200160008152602001600081526020016060815260200160608152602001606081525090565b6000604051905090565b600080fd5b600080fd5b6000819050919050565b611200816111ed565b811461120b57600080fd5b50565b60008135905061121d816111f7565b92915050565b600060208284031215611239576112386111e3565b5b60006112478482850161120e565b91505092915050565b600081519050919050565b600082825260208201905092915050565b6000819050602082019050919050565b600073ffffffffffffffffffffffffffffffffffffffff82169050919050565b60006112a78261127c565b9050919050565b6112b78161129c565b82525050565b60006112c983836112ae565b60208301905092915050565b6000602082019050919050565b60006112ed82611250565b6112f7818561125b565b93506113028361126c565b8060005b8381101561133357815161131a88826112bd565b9750611325836112d5565b925050600181019050611306565b5085935050505092915050565b600081519050919050565b600082825260208201905092915050565b6000819050602082019050919050565b611375816111ed565b82525050565b6000611387838361136c565b60208301905092915050565b6000602082019050919050565b60006113ab82611340565b6113b5818561134b565b93506113c08361135c565b8060005b838110156113f15781516113d8888261137b565b97506113e383611393565b9250506001810190506113c4565b5085935050505092915050565b6000604082019050818103600083015261141881856112e2565b9050818103602083015261142c81846113a0565b90509392505050565b61143e816111ed565b82525050565b61144d8161129c565b82525050565b600081519050919050565b600082825260208201905092915050565b60005b8381101561148d578082015181840152602081019050611472565b60008484015250505050565b6000601f19601f8301169050919050565b60006114b582611453565b6114bf818561145e565b93506114cf81856020860161146f565b6114d881611499565b840191505092915050565b6000610100820190506114f9600083018b611435565b611506602083018a611444565b818103604083015261151881896114aa565b9050818103606083015261152c81886114aa565b905061153b6080830187611435565b61154860a0830186611435565b61155560c0830185611435565b81810360e083015261156781846114aa565b90509998505050505050505050565b600082825260208201905092915050565b600061159282611453565b61159c8185611576565b93506115ac81856020860161146f565b6115b581611499565b840191505092915050565b600082825260208201905092915050565b60006115dc82611250565b6115e681856115c0565b93506115f18361126c565b8060005b8381101561162257815161160988826112bd565b9750611614836112d5565b9250506001810190506115f5565b5085935050505092915050565b600082825260208201905092915050565b600061164b82611340565b611655818561162f565b93506116608361135c565b8060005b83811015611691578151611678888261137b565b975061168383611393565b925050600181019050611664565b5085935050505092915050565b6000610140830160008301516116b7600086018261136c565b5060208301516116ca60208601826112ae565b50604083015184820360408601526116e28282611587565b915050606083015184820360608601526116fc8282611587565b9150506080830151611711608086018261136c565b5060a083015161172460a086018261136c565b5060c083015161173760c086018261136c565b5060e083015184820360e086015261174f8282611587565b91505061010083015184820361010086015261176b82826115d1565b9150506101208301518482036101208601526117878282611640565b9150508091505092915050565b600060208201905081810360008301526117ae818461169e565b905092915050565b60006020820190506117cb6000830184611435565b92915050565b6117da8161129c565b81146117e557600080fd5b50565b6000813590506117f7816117d1565b92915050565b600080fd5b600080fd5b7f4e487b7100000000000000000000000000000000000000000000000000000000600052604160045260246000fd5b61183f82611499565b810181811067ffffffffffffffff8211171561185e5761185d611807565b5b80604052505050565b60006118716111d9565b905061187d8282611836565b919050565b600067ffffffffffffffff82111561189d5761189c611807565b5b6118a682611499565b9050602081019050919050565b82818337600083830152505050565b60006118d56118d084611882565b611867565b9050828152602081018484840111156118f1576118f0611802565b5b6118fc8482856118b3565b509392505050565b600082601f830112611919576119186117fd565b5b81356119298482602086016118c2565b91505092915050565b60008060008060008060c0878903121561194f5761194e6111e3565b5b600061195d89828a016117e8565b965050602087013567ffffffffffffffff81111561197e5761197d6111e8565b5b61198a89828a01611904565b955050604087013567ffffffffffffffff8111156119ab576119aa6111e8565b5b6119b789828a01611904565b94505060606119c889828a0161120e565b93505060806119d989828a0161120e565b92505060a087013567ffffffffffffffff8111156119fa576119f96111e8565b5b611a0689828a01611904565b9150509295509295509295565b600081519050919050565b600082825260208201905092915050565b6000819050602082019050919050565b6000611a4b8383611587565b905092915050565b6000602082019050919050565b6000611a6b82611a13565b611a758185611a1e565b935083602082028501611a8785611a2f565b8060005b85811015611ac35784840389528151611aa48582611a3f565b9450611aaf83611a53565b925060208a01995050600181019050611a8b565b50829750879550505050505092915050565b6000610100820190508181036000830152611af0818b6113a0565b90508181036020830152611b04818a6112e2565b90508181036040830152611b188189611a60565b90508181036060830152611b2c8188611a60565b90508181036080830152611b4081876113a0565b905081810360a0830152611b5481866113a0565b905081810360c0830152611b6881856113a0565b905081810360e0830152611b7c8184611a60565b90509998505050505050505050565b7f4e487b7100000000000000000000000000000000000000000000000000000000600052602260045260246000fd5b60006002820490506001821680611bd257607f821691505b602082108103611be557611be4611b8b565b5b50919050565b600081905092915050565b50565b6000611c06600083611beb565b9150611c1182611bf6565b600082019050919050565b6000611c2782611bf9565b9150819050919050565b7f4e487b7100000000000000000000000000000000000000000000000000000000600052601160045260246000fd5b6000611c6b826111ed565b9150611c76836111ed565b9250828201905080821115611c8e57611c8d611c31565b5b92915050565b7f54686520646561646c696e652068617320706173736564000000000000000000600082015250565b6000611cca60178361145e565b9150611cd582611c94565b602082019050919050565b60006020820190508181036000830152611cf981611cbd565b9050919050565b60008190508160005260206000209050919050565b60006020601f8301049050919050565b600082821b905092915050565b600060088302611d627fffffffffffffffffffffffffffffffffffffffffffffffffffffffffffffffff82611d25565b611d6c8683611d25565b95508019841693508086168417925050509392505050565b6000819050919050565b6000611da9611da4611d9f846111ed565b611d84565b6111ed565b9050919050565b6000819050919050565b611dc383611d8e565b611dd7611dcf82611db0565b848454611d32565b825550505050565b600090565b611dec611ddf565b611df7818484611dba565b505050565b5b81811015611e1b57611e10600082611de4565b600181019050611dfd565b5050565b601f821115611e6057611e3181611d00565b611e3a84611d15565b81016020851015611e49578190505b611e5d611e5585611d15565b830182611dfc565b50505b505050565b600082821c905092915050565b6000611e8360001984600802611e65565b1980831691505092915050565b6000611e9c8383611e72565b9150826002028217905092915050565b611eb582611453565b67ffffffffffffffff811115611ece57611ecd611807565b5b611ed88254611bba565b611ee3828285611e1f565b600060209050601f831160018114611f165760008415611f04578287015190505b611f0e8582611e90565b865550611f76565b601f198416611f2486611d00565b60005b82811015611f4c57848901518255600182019150602085019450602081019050611f27565b86831015611f695784890151611f65601f891682611e72565b8355505b6001600288020188555050505b505050505050565b6000611f89826111ed565b91507fffffffffffffffffffffffffffffffffffffffffffffffffffffffffffffffff8203611fbb57611fba611c31565b5b600182019050919050565b7f4e487b7100000000000000000000000000000000000000000000000000000000600052603260045260246000fdfea2646970667358221220b9ed111497ebc348abe92cdbfc438fc2969a9b7f536a99619d466b34f3c5a77a64736f6c634300081c0033",
  "linkReferences": {},
  "deployedLinkReferences": {}
}